:02000004080AE8
:1000000000000A08704F0A080000060006000501FB
:080010000402E80500000000F5
:040018002C3F0A0867
:10001C0009480A4908B5884205D0094A824202D0EB
:10002C00121A03F045FE0748074A0021121A03F082
:10003C0065FE064808BD00BF00000020D44E0A082B
:10004C007400002074000020C4060020C4060020A8
:10005C0070B502F065F9074B074C1E46E41AA4086C
:10006C000025A54204D056F8253098470135F8E70D
:10007C0070BD00BF784E0A08C44E0A0800F05EB886
:10008C0008B500F07FF8BDE8084002F00BB901F0AC
:10009C0059BC000008B5034A00210C2001F0AEFB4E
:1000AC00FEE700BF49170A080078B0FA80F0400953
:1000BC0070470123037070477047006A0368DB6860
:1000CC001847000010B50446094B036002F0BAFA59
:1000DC00214602F0B6FC01F0D9FF01F0BDFF20462D
:1000EC00044B40F8043B02F0B3FB204610BD00BFAC
:1000FC00603F0A08483F0A0810B50446FFF7E2FFC4
:10010C002046242103F06AFC204610BD0EB400B535
:10011C008CB00DAA52F8041B20238DE80600039224
:10012C0004930168002304AA1E20059301F06EFBC2
:10013C000CB05DF804EB03B07047000007B5012369
:10014C000093002202210C4800F0B2FA18B90B49B6
:10015C000B48FFF7DBFF084800F058FD4FF4FA603E
:10016C0002F06AF8044800F096FA034803B05DF810
:10017C0004EB00F04BBD00BF9C000020703F0A0850
:10018C00BC040020704770B505460468436814260B
:10019C0006FB0346A64204D0204603F0EFFA1434C3
:1001AC00F8E7286801F0CEFB284670BD8842F8B508
:1001BC0006460C46154616D9904215D2A2F11405E6
:1001CC006C1AA1F114070444AF421CD02CB129467F
:1001DC00204603F0C3FA2B7C2374284603F0CEFA96
:1001EC00143D143CF0E70ED0AC420CD02EB121469D
:1001FC00304603F0B3FA237C3374204603F0BEFA86
:10020C0014341436F0E7F8BD2DE9F04100230360F7
:10021C00436083604E6804469E420F4624DD4FF0D7
:10022C00140808FB06F001F085FB0546E0B194E8E4
:10023C00060008FB0212FFF7B9FF206801F082FBF1
:10024C002560A6603E687B6808FB0368464509D0BC
:10025C002DB13146284603F0E7FA337C2B74143663
:10026C001435F3E77B6863602046BDE8F08100003D
:10027C00F0B52B4C91B001F0A1FA2A4E01200221CD
:10028C00032204238DE80F00002340228021204606
:10029C0000F004F932462449204603F091FB002378
:1002AC0004930593069301F0F1FE204C0746254676
:1002BC0004A907A8FFF7A8FF07A90AA8FFF7A4FF3E
:1002CC001B4B0AA945F8043B0DA8FFF79DFF0DAA8F
:1002DC001E21284602F01BFD0DA8FFF754FF0AA8AB
:1002EC00FFF751FF134B2762236007A8FFF74BFF63
:1002FC00114B236001F0CAFE4FF4165101F0A8FE19
:10030C0002F0A0F9214602F096FC04A8FFF73BFF8F
:10031C0032460A49204603F053FB11B0F0BD00BF32
:10032C009C00002074000020B5030A08780000200F
:10033C00483F0A08984C0A08603F0A08D1000A088E
:10034C007FB5024613790846956833B13DB90C491F
:10035C0004B0BDE8704003F029B80A4B00E00A4B2A
:10036C00167B0A4C0A49527B012E08BF2146029289
:10037C0001910095074A002103F04AF804B070BDC2
:10038C00B13F0A08574C0A08A03F0A08A93F0A08BF
:10039C00AD3F0A08C73F0A0810B50446806808B18B
:1003AC0001F0ACF9204610BD10B5044B04460360B7
:1003BC00C06A08B101F0C6FA204610BD0C400A080C
:1003CC0010B50446FFF7F0FF2046742103F006FB3E
:1003DC00204610BD002930B55EDBB0F90C408C42D4
:1003EC005ADD002A58DBB0F90E40944200DC30BDD7
:1003FC00847E022C07D10489013C611A448909B21C
:10040C00013CA21A06E0032C3CD10D46448911464E
:10041C00013C621B12B2012B03D011D3022B20D052
:10042C0030BD082492FBF4F4B0F9085002F0070236
:10043C0005FB0411C46A9340605C0343635430BDF4
:10044C00082392FBF3F3B0F9084002F0070204FB17
:10045C000311C46A0120635C00FA02F223EA02026F
:10046C000EE0082392FBF3F3B0F9084002F0070208
:10047C0004FB0311C46A0120635C00FA02F25A40C7
:10048C00625430BD012CC6D1514004894A40013C14
:10049C005140611A09B2BEE730BD000038B50446C0
:1004AC001D4600F0D5FD124B002223609DF9103043
:1004BC00626284F834309DF91430A26284F83530CD
:1004CC009DF91C30E26284F836309DF9183084F8BE
:1004DC00335084F83730074BE2666366012384F8A7
:1004EC00683084F8702084F87120204638BD00BF35
:1004FC000C400A08943F0A0870B50446806A0D4601
:10050C0090B194F9301001F03FFDA06A002103680E
:10051C009B689847A06A294603689B689847A06A1D
:10052C00BDE8704001F037BD226C206D136823EAE2
:10053C0000031360606A18B1BDE8704003F005B9A0
:10054C0008218020A36BA26C1E68054214BF3243A5
:10055C0026EA02021A60E26BE36C1668013943EA80
:10056C0006031360E26BE66C13684FEA500023EA53
:10057C0006031360E6D170BD38B50446806A0D469B
:10058C0018B1A16D01F0F2FC0BE0606A18B104F136
:10059C00640103F06BF8626C616D136823EA01036C
:1005AC001360002D204614BFA721A621FFF7A4FF3E
:1005BC00A06A20B1E16DBDE8384001F0D7BC626C97
:1005CC00636D11680B431360606A18B1BDE8384065
:1005DC0003F030B838BDF8B50446806A0D468F1864
:1005EC0048B394F9301001F0CFFCA06A00210368E5
:1005FC0001269B689847BD4218D01F2E0DD9A06AC2
:10060C0001F0C9FC94F93010A06A01F0BDFCA06A9D
:10061C000021036801269B689847A06A15F8011B06
:10062C00036801369B689847F6B2E4E7A06ABDE818
:10063C00F84001F0B0BC226C216D136823EA010371
:10064C001360BD4226D0606A15F8011B10B103F08F
:10065C007CF8F6E74FF0080C8026A36BA26CD3F85D
:10066C0000E0314214BF4EEA02022EEA02021A6086
:10067C00E26BE06C1368BCF1010C43EA00031360FD
:10068C00E26BE06C13684FEA560623EA0003136032
:10069C00E3D1D6E7F8BDB0F90A300822073393FB53
:1006AC00F2F3B0F9082000215A43C06A03F026BBCC
:1006BC002DE9FF411E46C36A0446884615469DF83F
:1006CC00287073B9B0F90A300820073393FBF0F3A4
:1006DC00B4F90800584301F02DF9E062002800F04D
:1006EC0053812046FFF7D7FFB4F90A20B4F908303C
:1006FC00202A4FF002010DDD523B403A92FBF1F201
:10070C00522093FBF1F14FF0010C40238DE80910BE
:10071C009F4B0CE0733B203A92FBF1F2732093FB5E
:10072C00F1F14FF0010E20238DE80940994B204642
:10073C0012B209B200F0FBFCA06A84F8318080B1DF
:10074C0035B9B4F90A30202B14BF3D253C2500E007
:10075C006DB284F83050002F00F0128101F00AFCC9
:10076C0068E094F93500012180B203F0FFF894F9A8
:10077C003600012180B203F0F9F801F01FF894F96A
:10078C0035301C256B43C3581433236401F016F821
:10079C0094F9353005FB03008388236501F00EF8CE
:1007AC0094F936306B43C3581433636401F006F884
:1007BC0094F93630626C05FB03008188616513681F
:1007CC000B431360606A20B1002F33D002F022FF7C
:1007DC0030E094F93300012180B203F0C7F894F9AA
:1007EC003400012180B203F0C1F800F0E7FF94F966
:1007FC0033306B43C3581433A36300F0DFFF94F919
:10080C00333005FB03008388A36400F0D7FF94F911
:10081C0034306B43C3581433E36300F0CFFF94F9C7
:10082C003430E26B05FB03008188E164136823EA32
:10083C0001031360FEB194F9370000281BDB012182
:10084C0080B203F093F894F93700012180B203F0E1
:10085C009EF8012001F0F0FC94F93700002180B2E1
:10086C0003F095F80A2001F0E7FC94F93700012118
:10087C0080B203F08CF8A06A18B1A16D01F076FB80
:10088C000BE0606A18B104F1640102F0EFFE626CD7
:10089C00616D136823EA0103136004223E4920466C
:1008AC00FFF799FEA17A20460139C9B2FFF724FE61
:1008BC003A4904222046FFF78EFE94F93130204647
:1008CC00012B14BF14211021FFF716FE042234490A
:1008DC002046FFF780FE8F2384F86030314AA368EE
:1008EC00934218D002F50012934209D194F9313099
:1008FC001225012B14BFCF239F2384F860300BE00B
:10090C00294A934207D194F93130012B14BFAF23FC
:10091C00102384F860300225DA212046FFF7ECFD25
:10092C0029462046FFF7E8FD81212046FFF7E4FD2C
:10093C0094F860102046FFF7DFFDD9212046FFF721
:10094C00DBFD94F931302046012B14BFF12122211B
:10095C00FFF7D2FD204606221449FFF73CFEA06AA1
:10096C0018B1E16D01F002FB08E0626C636D116877
:10097C000B431360606A08B102F05CFE012003E0D7
:10098C00002E7FF458AF78E704B0BDE8F08100BFCB
:10099C005C400A081C430A08E53F0A08E93F0A08BC
:1009AC00ED3F0A088000200060001000F13F0A08AB
:1009BC0070B5002ABDF8105044DBB0F90A409442DF
:1009CC0040DD0029BEBF5B181BB20021B0F90860E6
:1009DC005C18B442C4BF731A1BB2002B32DD08245E
:1009EC0092FBF4F406FB0411C06A02F007020844FF
:1009FC00012101FA02F28D42D2B203D00CD3022DA6
:100A0C0016D070BD013B1BB25D1C1BD010F8011B36
:100A1C00114300F8011CF5E7D243D2B2013B1BB2E3
:100A2C005C1C0FD010F8011B114000F8011CF5E7FD
:100A3C00013B1BB2591C05D010F8011B514000F8AA
:100A4C00011CF5E770BD0000F0B50029BDF814508D
:100A5C00C0F28880B0F908E0714580F28380002AEA
:100A6C00BEBF9B181BB20022B0F90A40D618A64292
:100A7C00C4BFA31A1BB2002B74DDD2B2D4080EFB78
:100A8C000411C66A12F00702DBB206EB01042BD08C
:100A9C00C2F10802D2B2344F9342BF5C0DD2C3EB09
:100AAC00020C4FF0FF0E4EFA0CFE012D0EEA07075A
:100ABC0005D00AD3022D55D10CE0012D04D116F826
:100ACC0001E047EA0E0709E048D216F801E02EEAE9
:100ADC00070703E016F801E087EA0E079342775404
:100AEC0040D3B0F908100C449B1ADBB2072B1CD96D
:100AFC00022D0BD11A462178083AC9432170B0F95E
:100B0C000810D2B2072A0C44F5D81EE0002D14BFF1
:100B1C00FF2600261A462670083AB0F90810D2B201
:100B2C00072A0C44F7D803F00703DBB10F4A012D59
:100B3C00D35C03D005D3022D14D10BE022781343E0
:100B4C000AE0227822EA030306E013F0070309D037
:100B5C00064AD35C227853402370F0BD022DB9D0E5
:100B6C007444C1E7F0BD00BFF73F0A08983F0A087C
:100B7C0070B4847EBDF80C60022C08D0032C0FD00E
:100B8C00012C18D10589013DAC1A24B20DE0448921
:100B9C00013CA41A22B20489611AC91A09B20AE0EA
:100BAC0014464289D21A511A09B203960A462146B2
:100BBC0070BCFFF749BF039670BCFFF7F9BE30B4A9
:100BCC00847EBDF80850022C08D0032C0FD0012CC9
:100BDC0018D10489E41AA21A14B20DE00489013C5C
:100BEC00611A448909B2A21AD21A12B20AE0144646
:100BFC004289013A511A09B202950A46214630BC83
:100C0C00FFF7D6BE029530BCFFF71EBFF8B5044601
:100C1C00806A18B1A16D01F0A9F90BE0606A18B1F6
:100C2C0004F1640102F022FD626C616D136823EA29
:100C3C0001031360052240492046FFF7CCFC217AC2
:100C4C0020460139C9B2FFF757FCB4F90A50082302
:100C5C00073595FBF3F52389E66A5D43A06AADB2CF
:100C6C00354440B394F9301001F08EF9A06A40215C
:100C7C00036801279B689847AE4218D01F2F0DD9E7
:100C8C00A06A01F088F994F93010A06A01F07CF99F
:100C9C00A06A4021036801279B689847A06A16F850
:100CAC00011B036801379B689847FFB2E4E7A06A11
:100CBC0001F071F92DE0226C236D11680B43136068
:100CCC00AE4226D0606A16F8011B10B102F03DFD51
:100CDC00F6E74FF0080C8027A36BA26CD3F800E06A
:100CEC00394214BF4EEA02022EEA02021A60E26B8B
:100CFC00E06C1368BCF1010C43EA00031360E26B77
:100D0C00E06C13684FEA570723EA00031360E3D142
:100D1C00D6E7A06A20B1E16DBDE8F84001F026B934
:100D2C00626C636D11680B431360606A18B1BDE8A7
:100D3C00F84002F07FBCF8BDFF3F0A0800F03EBD52
:100D4C0000F03CBD00F03ABD00F038BD2DE9F04F8D
:100D5C001E4685B0BDF9383015469A1A002AB8BF20
:100D6C0052420092721A002AB8BF524201920C46AB
:100D7C00009A019981468A42BDF83CA005DD3246B5
:100D8C001E46134622462C461546B44205DD2A461D
:100D9C001D4613462246344616465A1B002AC4EBFF
:100DAC000608B8BF52421FFA88F803920FFA88F768
:100DBC0002229D42B4BF01234FF0FF3397FBF2F7A1
:100DCC000293B4421FDC019A009B48469342D9F827
:100DDC000030C8BF2246D3F818B0C8BF29465346C6
:100DEC00DCBF2A462146D847039BFF1ABBB21FB271
:100DFC00002F05DA029A08EB030715442DB23FB217
:100E0C00013424B2DDE705B0BDE8F08F10B40468FE
:100E1C002469A44610BC604730B4BDF8085004687F
:100E2C000295A46BA44630BC604730B4BDF80850A2
:100E3C0004680295E46BA44630BC604770B4BDF9FD
:100E4C000C50BDF81060046804960395246CA446FD
:100E5C0070BC604770472DE9F3411C4616460546A9
:100E6C000F460368013CBDF820805B693444984709
:100E7C0024B22B68CDF8048000949C6A28463B462B
:100E8C0032463946A04728462B68DB6A02B0BDE8DB
:100E9C00F04118472DE9F341174604461D460E460E
:100EAC000368BDF820805B6998478DE88001226853
:100EBC006B1E3344956A20461BB23A463146A8470E
:100ECC0020462368DB6A02B0BDE8F04118472DE9E3
:100EDC00F3471E4603680C465B6905461746BDF989
:100EEC002880BDF82C9098472644B4422A680BDA27
:100EFC00CDF80090D2F820A0214643463A46284629
:100F0C000134D04724B2F0E72846D36A02B0BDE8DA
:100F1C00F047184713B5B0F90E2004680191009200
:100F2C000022B0F90C30246C1146A04702B010BD61
:100F3C002DE9F7439942904607460E461C46BDF9EB
:100F4C002850BDF82C9002680BD1A845C2BF43466F
:100F5C00A8461D46CDF828906B1CC8EB0303946B78
:100F6C000BE0A84512D19942C2BF0B4626461C463F
:100F7C00CDF82890631CD46B9B1B424631463846F7
:100F8C00A4461BB203B0BDE8F043604753699847D1
:100F9C003B688DE8200238469D6A4246234631461E
:100FAC00A84738463B68DB6A03B0BDE8F0431847F6
:100FBC002DE9F34704460D4617461E460368BDF857
:100FCC002C805B69BDF9289098472368CDF8008088
:100FDC00D3F824A03A46334629462046D047236806
:100FEC0009F1FF32CDF800803A44D3F824A0294609
:100FFC003346204612B2D0472368CDF80080D3F890
:10100C0020A03A464B4629462046D0472368711EFD
:10101C00CDF80080294420461D6A3A464B4609B259
:10102C00A84720462368DB6A02B0BDE8F0471847A2
:10103C00704701F00301012981760389428904D0AC
:10104C00032902D08381C28170478281C38170479A
:10105C00018181814FF6FF7130B5094D0024428129
:10106C00C281012244600560847604824482427607
:10107C000276C1828182C2760477046230BD00BFE1
:10108C0004450A082DE9F04F89B09A46BDF94C3059
:10109C00BDF948900493BDF8503003920593036852
:1010AC0002915B69002605469847082309F107025F
:1010BC0092FBF3FB344600960793009A039B134470
:1010CC001BB20193049ABDF900309A4228DD0AEB59
:1010DC0006034FF0000806930FFA88F34B451ADA13
:1010EC001FFA88F14A0709BF079A640093FBF2F3D1
:1010FC00069A14BFE4B2D45C230609D5029B019A6C
:10110C0019442B6809B29B6928461F46059BB847B2
:10111C0008F10108E0E7009B5E4401330093CCE743
:10112C0028462B68DB6A09B0BDE8F04F184770B44D
:10113C00BDF90C40BDF91050BDF81460049505962E
:10114C00039470BCFFF79EBF2DE9F04F91B017468A
:10115C009846026ABDF86830044603910293BDF8C4
:10116C006C909DF870609DF87450002A40F0B4802B
:10117C00B0F90C308B4240F33B81B0F90E30BB42DE
:10118C0040F33681062303FB0613002B40F330811A
:10119C0007EBC503002B40F32B81037F33B9B8F168
:1011AC00AF0F84BF08F101085FFA88F82368204666
:1011BC005B699847052308938F4B08EB88084344D9
:1011CC000C9333B24FF0000A0B93B2B206920C9B05
:1011DC00BDF80C2013F80A3004920499069A059372
:1011EC001FFA8AF302FB03120B4412B207921BB2D2
:1011FC00082209924FF000080A93059BDA0710D5D4
:10120C00012E08D1012D06D1236808EB0702D3F873
:10121C0018B0029B12E0029908FB05722368019139
:10122C0016E0029B4B451BD0012E0CD1012D0AD18F
:10123C00236808EB0702D3F818B04B4612B20A9990
:10124C002046D8470CE008FB05722368CDF80490C3
:10125C000095D3F81CB012B20B9B07992046D847C7
:10126C00059B08F101085B080593099B4FFA88F868
:10127C00013B13F0FF030993BFD1089B0AF1010A4C
:10128C00013B13F0FF034FFA8AFA08939DD1029B9E
:10129C004B4500F0A680012E23680CD1012D0AD1FC
:1012AC000499CDF8009005311D6A3A46082309B21D
:1012BC002046A84795E0069AED0002EB8201049ABD
:1012CC00CDF804900A4411460095DD693A46334640
:1012DC0009B22046A84784E0137A5168C3EB08088A
:1012EC0012685FFA88F80D9231F8382001EBC803C8
:1012FC0004929A78012E0792DA7893F906B00A9242
:10130C0093F90520089201D8012D06D9BDF920309A
:10131C0006930FFA8BF3059302E0002305930693D3
:10132C004FF00008C246C146236820465B699847C7
:10133C00BBB209935B440F930A9A5FFA88F393420A
:10134C004FD2059A0999424402FB051212B20C9233
:10135C0052460F9900270B441BB20E93079B9F42DA
:10136C0038D2531CDBB20B93530707D1049B04995F
:10137C000D9A01339BB212F80190049319F0800F6F
:10138C0020D0012E0ED1012D0CD1089B039A2046A2
:10139C00991823683944D3F818B00E9A029B09B2F5
:1013AC00D8470FE0069B029AD919039B019201FBC7
:1013BC00063123680095D3F81CB00C9A334609B259
:1013CC002046D8474FEA490901375FFA89F9FFB23D
:1013DC000B9AC3E7079B08F101089A445FFA8AFA53
:1013EC00AAE720462368DB6A11B0BDE8F04F184726
:1013FC0011B0BDE8F08F00BF54450A08F0B5026A81
:10140C0085B004460B46002A2FD10A2905D1028249
:10141C00438A427E03EBC20330E00D296AD0C17EC1
:10142C00457E007E69B1B4F91060062101FB0061B4
:10143C00B4F90C60B142C1BF2282628A02EBC502D0
:10144C0062820290E08AB4F912200190A08AB4F969
:10145C001010009003952046FFF776FE237E228A1B
:10146C0003EB430302EB430343E00A2908D10023B7
:10147C000382417E127B438A01FB0233638239E093
:10148C000D2937D0157AA94234D3917A994231D3A8
:10149C0051685D1BEDB201EBC505A97821B3E87865
:1014AC0010B3E77E667E207E8FB195F905703944C6
:1014BC00B4F9107000FB0171B4F90C70B94206DD7F
:1014CC0000212182127B618A06FB02126282029049
:1014DC00E08AB4F912200190A08AB4F9101000909F
:1014EC0003962046FFF730FE2979227E238A01FBE2
:1014FC0002332382012005B0F0BD00F05FB900F08B
:10150C005DB900F05BB9000008B5024B1B689B6C21
:10151C00019308BDC001060808B5024B1B681B6887
:10152C00019308BDD801060808B5024B1B685B681F
:10153C00019308BDD801060808B5024B1B689B68CF
:10154C00019308BDD801060808B5024B1B681B693E
:10155C00019308BDD801060808B5024B1B685B69EE
:10156C00019308BDD801060808B5024B1B689B699E
:10157C00019308BDD801060808B5024B1B68DB694E
:10158C00019308BDD801060808B5024B1B681B6AFD
:10159C00019308BDD801060808B5024B1B681B6CEB
:1015AC00019308BDAC01060808B5024B1B68DB6C47
:1015BC00019308BDAC01060808B5024B1B689B6D76
:1015CC00019308BDAC01060808B5024B1B68DB6D26
:1015DC00019308BDAC01060808B5024B1B681B6ED5
:1015EC00019308BDAC01060808B5024B1B685B6E85
:1015FC00019308BDAC01060808B5024B1B689B6E35
:10160C00019308BDAC01060808B5024B1B68DB6EE4
:10161C00019308BDAC01060808B5024B1B681B6F93
:10162C00019308BDAC01060808B5024B1B685B6F43
:10163C00019308BDAC01060808B5034B1B68D3F831
:10164C008030019308BD0000AC01060808B5024BC0
:10165C001B689B69019308BDC401060808B5024BC1
:10166C001B681B6A019308BDC401060808B5024B30
:10167C001B685B6A019308BDC401060808B5024BE0
:10168C001B689B6A019308BDC401060808B5024B90
:10169C001B68DB6A019308BDC401060808B5024B40
:1016AC001B681B6B019308BDC401060808B5024BEF
:1016BC001B685B6B019308BDC401060808B5024B9F
:1016CC001B689B6B019308BDC401060808B5024B4F
:1016DC001B681B6C019308BDC401060808B5024BBE
:1016EC001B68DB6C019308BDC401060808B5024BEE
:1016FC001B685B6C019308BDD001060808B5024B52
:10170C001B689B6C019308BDD001060808B5024B01
:10171C001B68DB6C019308BDD001060808B5024BB1
:10172C001B685B6D019308BDD001060808B5024B20
:10173C001B685B68019308BD9C01060808B5024B49
:10174C001B68DB68019308BD9C01060808B5024BB9
:10175C001B685B69019308BD9C01060808B5024B28
:10176C001B681B68019308BDB401060808B5024B41
:10177C001B685B69019308BDB401060808B5024BF0
:10178C001B68DB69019308BDB401060808B5024B60
:10179C001B681B6A019308BDB401060808B5024B0F
:1017AC001B685B6A019308BDB401060808B5024BBF
:1017BC001B68DB6B019308BDB401060808B5024B2E
:1017CC001B681B68019308BDB001060808B5024BE5
:1017DC001B689B68019308BDB001060808B5024B55
:1017EC001B68DB68019308BDB001060808B5024B05
:1017FC001B681B69019308BDB001060808B5024BB4
:10180C001B685B6B019308BDA801020808B5024B6D
:10181C001B685B6D019308BDA801020808B5024B5B
:10182C001B68DB6E019308BDA801020808B5024BCA
:10183C001B681B6F019308BDA801020808B5024B79
:10184C001B68DB6B019308BDCC01060808B5024B85
:10185C001B685B68019308BDC801060808B5024BFC
:10186C001B689B68019308BDC801060808B5024BAC
:10187C001B68DB68019308BDC801060808B5024B5C
:10188C001B681B69019308BDC801060808B5024B0B
:10189C001B685B69019308BDC801060808B5024BBB
:1018AC001B689B69019308BDC801060808B5024B6B
:1018BC001B68DB69019308BDC801060808B5024B1B
:1018CC001B681B6A019308BDC801060808B5024BCA
:1018DC001B681B6B019308BDC801060808B5024BB9
:1018EC001B685B6B019308BDC801060808B5024B69
:1018FC001B685B68019308BDA401060808B5024B80
:10190C001B685B69019308BDA401060808B5034B6D
:10191C001B68D3F89030019308BD0000A4010608A1
:10192C0008B5034B1B68D3F89C30019308BD00002D
:10193C00A401060808B5024B1B681B68019308BD7F
:10194C00A001060808B5024B1B685B68019308BD33
:10195C00A001060808B5024B1B689B68019308BDE3
:10196C00A001060808B5024B1B685B6A019308BD11
:10197C00A001060800F11002012312F8101C1046F9
:10198C00012904D152F8041C03EB410304E00229A1
:10199C0004BF52F8041C5B18013B02F11002ECD19D
:1019AC0070470EB42DE9F04187B000AF07F1340455
:1019BC0054F8046B054623463246102107F1080003
:1019CC007C60FFF7CFFF0F2816D900F1080323F036
:1019DC000703E846ADEB030D3246411C234668462F
:1019EC007C60FFF7BFFF021E04DD2B6869469B6815
:1019FC0028469847C54607E030B12B6802469B68DD
:101A0C0007F10801284698471C37BD46BDE8F04150
:101A1C0003B0704710B5044603689B689847A368E9
:101A2C00013BA3602BB923682046BDE81040DB685E
:101A3C00184710BD13B5026802AB03F8011D94687A
:101A4C0019460122A04702B010BD8368FBB11A7879
:101A5C00032A1AD8DFE802F00417021D052070478C
:101A6C0002685B685268D05C2D2814D0A0F130035A
:101A7C00092B10D9742810D066280ED0A0F16E0353
:101A8C00584258417047062070470020704718464E
:101A9C00704704207047032070470220704710B530
:101AAC000446FFF7D2FF02280DD016D3042814D811
:101ABC002268A36850685B680A2200211844BDE8BC
:101ACC00104002F023BA2268A36852685B68D05CAD
:101ADC00A0F174035842584110BD002010BD10B540
:101AEC00436904465BB18068013BE0601030A06044
:101AFC00206163612BB1FFF73DFFA06001E0184648
:101B0C0010BD012010BD10B504467D21FFF792FFDA
:101B1C0001232371204610BD08B50379012B02D097
:101B2C00022B02D008BD2C2100E03A21FFF782FFE6
:101B3C0008BD10B50446FFF7EFFF20467B21FFF7E9
:101B4C0079FF00232371204610BD000038B50446F0
:101B5C000D46FFF7E1FF23682046DB682A46034960
:101B6C00984701232371204638BD00BF634A0A08F9
:101B7C0038B504460D46FFF7CFFF23682046DB68D7
:101B8C002A460349984701232371204638BD00BFDC
:101B9C00664A0A08F8B50D46174622210446FFF797
:101BAC0049FF2A4629462F44BA4238D0164616F821
:101BBC00015B222D03D05C2D01D01F2D2DD8236865
:101BCC00521A9B68204698475C212046FFF732FF4B
:101BDC000C2D19D007D8092D0FD00A2D12D0082D95
:101BEC0014D162210AE0222D05D05C2D03D00D2DDD
:101BFC000CD1722102E0294600E074212046FFF747
:101C0C0019FF09E06E21F9E76621F7E723682A46F8
:101C1C00DB6809492046984731463246C4E7914271
:101C2C0004D02368521A9D682046A84722212046DA
:101C3C00FFF700FFF8BD00BF774A0A0870B50446ED
:101C4C000D461646FFF768FF204632462946FFF739
:101C5C00A1FF02232371204670BD70B504460D46CA
:101C6C001646FFF759FF204632462946FFF792FFEA
:101C7C0001232371204670BD10B50446006828B1BD
:101C8C004368013B43600BB9FFF7C4FE204610BD0F
:101C9C0038B50C68036805469C420CD014B16368D7
:101CAC0001336360286828B14368013B43600BB97A
:101CBC00FFF7B0FE2C60284638BD000010B5044676
:101CCC000023036043601048E360A060D1B10B783F
:101CDC00032B06D0B3B9136858684B68C35C6E2BE2
:101CEC0008D0136858684B680344A3608B68496834
:101CFC005B1AE3601146204651F8043B40F8043B64
:101D0C00FFF7C6FF204610BD574C0A08002310B53C
:101D1C000446036043608360C3600361436171B137
:101D2C000B78012B0BD101F110038360CB681146AA
:101D3C00436151F8043B40F8043BFFF7A9FF2046F0
:101D4C0010BD002310B5044603604360816031B1BF
:101D5C00114651F8043B40F8043BFFF799FF20462D
:101D6C0010BD00231A464068FFF770BD0022022107
:101D7C004068FFF77BBD002211464068FFF76EBD3F
:101D8C00002211464068FFF779BD00231A46194618
:101D9C004068FFF77BBD00231A4619464068FFF7E1
:101DAC007DBD002281F001014068FFF77FBD00225C
:101DBC004068FFF78BBD002211464068FFF78EBDCF
:101DCC00002211464068FFF779BD000070B5164639
:101DDC008EB0044608A800F0DDF91122002103A8FA
:101DEC0001F08CFF304601F0DBFF00250A4B00951B
:101DFC0081B25B6803AA3046FFF786FB20B1294607
:101E0C00204600F0E7F903E003A9204600F0D0F9E2
:101E1C0020460EB070BD00BF28010020024B034AC3
:101E2C001A6000225A60704720010020884A0A0874
:101E3C00002211464068FFF721BDF0B5164689B067
:101E4C0011220F460446002103A801F057FF30462B
:101E5C0001F0A6FF0025009581B27B6803AA3046ED
:101E6C00FFF752FB20B12946204600F0B3F903E0FE
:101E7C0003A9204600F09CF9204609B0F0BD0022D1
:101E8C0011464068FFF71ABD002211464068FFF763
:101E9C0025BD00224068FFF719BD002281F0010129
:101EAC004068FFF703BD00231A4619464068FFF748
:101EBC00F5BC00231A4619464068FFF7E7BC002220
:101ECC0011464068FFF7CABC002202214068FFF7A8
:101EDC00CDBC00231A464068FFF7B8BC024B042265
:101EEC005A60024A1A60704728010020BC4A0A084E
:101EFC007047F8B5064615460C468F18BC4206D0FE
:101F0C00336814F8011B9B6830469847F6E728465F
:101F1C00F8BD0022007CFFF75FBB0021007CFFF7BF
:101F2C0063BB0021007CFFF767BB0021007CFFF73F
:101F3C006BBB0021007CFFF76FBB10B5044614216E
:101F4C0001F04CFD204610BD10B504460023636023
:101F5C004FF47A73A360044B217408462360114636
:101F6C00FFF76AFB204610BDF04A0A080022007CED
:101F7C00FFF712BB00231A461946007CFFF714BB6F
:101F8C000022007CFFF718BBC9B2FFF7F9BF002293
:101F9C00007CFFF719BB0121FFF7F9BF0021007C82
:101FAC00FFF742BB41747047704708B50021007CB5
:101FBC00FFF7DAFA30EA200028BF4FF0FF3008BDF7
:101FCC0008B50121007CFFF7CFFA30EA200028BFCA
:101FDC004FF0FF3008BD08B5007CFFF7BDFA20EAD2
:101FEC00E07008BD08B5007CFFF7AEFA20EAE0709F
:101FFC0008BD007CFFF7C8BA10B50446142101F0E7
:10200C00EDFC204610BD38B50446007C0D46FFF7AC
:10201C00A3FA002801DC607C28B12946207CFFF75C
:10202C00ABFA20EAE07038BD10B5044600236360BB
:10203C004FF47A73A360054B084623600123217487
:10204C0063741146FFF768FA204610BD184B0A0856
:10205C000022007CFFF768BA007CFFF76DBA000025
:10206C0010B504461422002101F048FE054B204611
:10207C006360054BE36040F20113238181232382CB
:10208C0010BD00BFB50100203401002030B50E4D4D
:10209C0087B001A8FFF7E4FF296811F0010410D103
:1020AC002846FEF701F860B101AA21460748FFF760
:1020BC00BBFF2846FDF7FDFF054A0649034801F022
:1020CC007FFC024807B030BD30010020B802002070
:1020DC0074000020B51F0A0810B504461422002114
:1020EC0001F00CFE054B20466360054BE36040F2AB
:1020FC00011323818123238210BD00BF68030020BC
:10210C00D002002010B50E4C86B001A8FFF7E4FFFA
:10211C002368DB0710D42046FDF7C6FF60B101AA87
:10212C0001210848FFF780FF2046FDF7C2FF064A51
:10213C000649044801F044FC024806B010BD00BF3B
:10214C00CC0200205403002074000020B51F0A08A4
:10215C00704710B50446182101F040FC204610BD14
:10216C00F8B50F4600F10806051D002416F8011DF0
:10217C000A22384601F02DF9AE42044407D0002C57
:10218C00F4D02E21384601F015F90444EEE7204630
:10219C00F8BD000010B50446044B112240F8043B76
:1021AC00002101F0ABFD204610BD00BF484B0A08D2
:1021BC000346074A10B543F8042B01F1100251F8FD
:1021CC00044B914243F8044BF9D10A781A7010BDB4
:1021DC00484B0A08024A41600260042202757047AB
:1021EC00484B0A0810B59DF8084044EA032343EA1B
:1021FC00024242EA016104234160037510BD0000F4
:10220C0037B5044D05609DF818500095FFF7EAFFAF
:10221C0003B030BD484B0A0810B58368044613B1AF
:10222C00032201469847204610BD0B68036013B18A
:10223C005A6801325A6070470021FFF75FBB0000FB
:10224C0008B5144B33B1FFF721FF03681B6998479E
:10225C00002816DC104B33B101F07AF903681B69C6
:10226C009847002810DC0D4B0BB1AFF300800C4BE2
:10227C007BB1FFF747FF03681B699847002806DC12
:10228C0008BDAFF30080E5E7AFF30080EBE7AFF3F9
:10229C00008008BD000000000000000000000000ED
:1022AC000000000008B5FFF7CBFFFFF74FFA014B1A
:1022BC00186008BD1C0600200248034A0349121A84
:1022CC0001F0F6BC0040024004400240D04E0A0827
:1022DC0007B5002300931A466FF07701FFF720FB38
:1022EC0003B05DF804FB000007B543880A2B08D047
:1022FC00502B09D1094B1B683BB103B05DF804EBC3
:10230C001847FFF7E5FF06E0002300931A466FF02D
:10231C007701FFF705FB03B05DF804FB6C040020AC
:10232C0038B5104C104D2368AB42104B0CBF01223A
:10233C0000221A7002D0FFF7BFFF2560FFF7F6F9F5
:10234C00044601F0E3FC0A4B13B12046AFF30080C6
:10235C0000210748FFF772FABDE838400021054814
:10236C00FFF7D4BA004002401E1C279A70040020CC
:10237C0000000000F5220A0810B50446FFF74CFFD8
:10238C00204610BD034800238360034A034901F033
:10239C0017BB00BF740400207400002085230A08BA
:1023AC00024B1A68024B1A60704700BF00000020F5
:1023BC008404002080680368DB681847704719B1F3
:1023CC000B6808465B681847704719B10B680846DC
:1023DC005B681847704770477047704738B50446BC
:1023EC000D4600682E2101F0C7FC2368C31A2B6030
:1023FC0023B1037803B1013023682060184638BD3F
:10240C0010B504460C2101F0E9FA204610BD10B5B8
:10241C000446042101F0E2FA204610BD10B5044632
:10242C00042101F0DBFA204610BD38B50C460546F8
:10243C00FFF72CFE844202D1FFF728FE05E0FFF7E0
:10244C0061FE844205D1FFF75DFEBDE83840FFF721
:10245C0003BE01F07DF8844205D101F079F8BDE8A6
:10246C00384001F06EB821462846FFF7AEFF38BD64
:10247C0008B501F08BFCB0FA80F0400908BD38B506
:10248C00054608460C4601F08BFC214602462846C0
:10249C00BDE83840FFF7E1BB0068FFF737B970B50E
:1024AC00044608460D4601F07BFC2368024629468B
:1024BC002046BDE87040DB68184713B5026802ABD4
:1024CC0003F8011DD46819460122A04702B010BDC3
:1024DC002DE9F04F07688B463C464568914614221F
:1024EC00554385B00193AB10184D02925D43012307
:1024FC00002D039323DD029B6E1003FB06F004EB0F
:10250C000008B8F804A04A46D14528BF524659469F
:10251C00205801F04DFC039B48B9D14503D1019AD9
:10252C0013703546E4E78CBF0120002000E0C00F9B
:10253C000028F6D0AE1B08F11404013EF1E7E41BB1
:10254C000248A410604305B0BDE8F08FCDCCCCCCD4
:10255C00F0B5036985B00191067E13B309B300236E
:10256C001D4604AF00F10C0447F8043D394601A8A0
:10257C00FFF734FF0146A0B104AB03F8055D039AE5
:10258C002046FFF7A5FF9DF80B3053B123681424A8
:10259C0004FB0034B4F906300834002BA8BFDEB2BB
:1025AC00E4E7304605B0F0BD10B5094C2368DB07F5
:1025BC000BD42046FDF778FD38B12046FDF779FDA8
:1025CC00044A0549054801F0FBF9044810BD00BF59
:1025DC008804002074000020E5230A08080000206D
:1025EC0010B5094C2368DB070BD42046FDF75CFDC6
:1025FC0038B12046FDF75DFD044A0549054801F058
:10260C00DFF9044810BD00BFB8040020740000209E
:10261C00E3230A080400002038B5002504460560B1
:10262C004560856005614561856140F8245FFFF771
:10263C005DF8FFF7B9FFE061FFF7D2FF2573206269
:10264C00204638BD10B50A4C2368DB070ED4204653
:10265C00FDF72AFD50B10748FFF7DEFF2046FDF7D6
:10266C0028FD054A0549034801F0AAF9014810BDA7
:10267C008C0400209004002074000020D92A0A0841
:10268C000023024A02490348FFF7D0B8BD290A08C3
:10269C004D290A08D5280A0800231A461946184657
:1026AC00FFF7C4B873B505468E6851F8043B02AC0D
:1026BC0044F8083D01A8FFF7B8FD224631462846EC
:1026CC00FFF724FB01A8FFF7D7FA284602B070BD2C
:1026DC0073B505460E6951F8043B02AC44F8083D4D
:1026EC0001A8FFF7A2FD224631462846FFF729FB39
:1026FC0001A8FFF7C1FA284602B070BD73B50546B4
:10270C00CE6851F8043B02AC44F8083D01A8FFF731
:10271C008CFD224631462846FFF7D0FA01A8FFF778
:10272C00ABFA284602B070BD30B58BB00D460146F1
:10273C0004A8FFF7B7FF04A8FFF7D1F9E8B104A983
:10274C006846FFF7DBFF0F490298FFF791FE04463E
:10275C0010B12C1C18BF012401A8FFF78DFA002C16
:10276C00E9D004A96846FFF7B3FF6846FFF797F96D
:10277C00286001A8FFF780FADDE705A8FFF77CFACF
:10278C000BB030BDB04B0A0837B50C461A49204681
:10279C00154601F0FBFA40B9FFF778FC4FF41651DF
:1027AC00FFF756FCFFF772FC23E01449204601F0BA
:1027BC00EDFA40B9FFF7A6FC4FF41651FFF748FCB1
:1027CC00FFF7A0FC15E00E49204601F0DFFA78B9BE
:1027DC0002A94FF4165341F8043D2846FFF7A4FF15
:1027EC0000F0B6FE019900F0A9FE00F0B1FE00E089
:1027FC00002003B030BD00BFB54B0A08BC4B0A0823
:10280C00BF4B0A0870B5054604684368142606FBDE
:10281C000346A64205D004F10800FFF7F3FF143479
:10282C00F7E72868FFF78EF8284670BD70B50546A7
:10283C000468436804EB0316A64204D0204600F05B
:10284C009DFF1034F8E72868FFF77CF8284670BD28
:10285C0010B504460C30FFF7D5FF2046FFF7E6FF16
:10286C00204610BD10B50446034B40F8043BFFF75F
:10287C00EFFF204610BD00BF483F0A0810B50446C4
:10288C00FFF7F0FF2046242101F0A8F8204610BDE8
:10289C0010B50446024B0360FFF7E4FF204610BD61
:1028AC00A04B0A0810B50446FFF7F2FF204624217E
:1028BC0001F094F8204610BD10B504460368186862
:1028CC00FEF72CFF204610BD2DE9F04F9B461B4B0D
:1028DC0085B05B688246C3F308030E46904653BB33
:1028EC00FFF7B0FE044624300390FFF7D5FD237BA1
:1028FC00F3B90123237325686368F6B205EB8309EA
:10290C004D4513D055F8047B4146381DFFF720FE8A
:10291C008642F5D33B68CDF800B09B6838469E469E
:10292C003246434651467746B847E9E700232373BE
:10293C0003A8FFF7C1FF05B0BDE8F08F00ED00E084
:10294C002DE9F74F9946194B07465B688846C3F348
:10295C000803164633BBFFF775FE0446243001907E
:10296C00FFF79AFD237BD3B9012323732568636892
:10297C005FFA86FB05EB830A55450ED055F8046BC0
:10298C004946301DFFF7E4FD8345F5D333684246D5
:10299C00DB68394630469847EEE70023237301A8DD
:1029AC00FFF78AFF03B0BDE8F08F00BF00ED00E039
:1029BC002DE9F341154B04465B688846C3F30803C5
:1029CC00FBB9FFF73FFE064624300190FFF764FD8C
:1029DC0096E8A000462605EB8707AF4207D101A871
:1029EC00FFF76AFFB442B4BF002001200AE055F89B
:1029FC00040B41460430FFF7ABFD8642A8BF0646E8
:102A0C00EBE7002002B0BDE8F08100BF00ED00E074
:102A1C0070B504460368426803EB82029A4218467A
:102A2C000DD006680D680433AE42F7D1011D521A61
:102A3C0001F049F963680120013B636070BD00201F
:102A4C0070BD1FB50446243001910390FFF724FD9F
:102A5C0001A92046FFF7DCFF20B903A8FFF72CFFE4
:102A6C0004B010BD6368002BF7D1FFF715FEF4E737
:102A7C0070B5044605694369182606FB0356AE4239
:102A8C0015D005F110012046FFF7C2FF63680BB9A2
:102A9C00FFF702FEE06929690368DB6898476969FA
:102AAC0019B1206A0368DB6898471835E7E7256990
:102ABC006369182606FB0356B54204D0284600F07D
:102ACC005DFE1835F8E70023636170BD73B50446ED
:102ADC0002ADFFF7E1FD04F1240045F8040DFFF70A
:102AEC00DBFC2046FFF7C4FF2846FFF7E5FE606AD3
:102AFC0008B1FEF703FE25696369182606FB035629
:102B0C00B54204D0284600F039FE1835F8E72069A4
:102B1C00FEF718FF2068FEF715FF204602B070BDC7
:102B2C0003680A6802600B6043684A6842604B6045
:102B3C0083688A6882608B60704710B504460023F6
:102B4C00036043608360FFF7EBFF204610BD8842B3
:102B5C00F8B50446164625D9904224D2551A143D90
:102B6C002C44A1F11407A2F10C050026A5F10803D1
:102B7C009F4237D084B155F8083C2946236035F87C
:102B8C00043C04F10800A38035F9023CA660E38004
:102B9C00E6602661FFF7C4FF2846FFF733FE143CBE
:102BAC00143DE3E71ED001F108050027A5F1080349
:102BBC009E4217D084B155F8083C2946236035F85D
:102BCC00043C04F10800A38035F9023CA760E380C3
:102BDC00E7602761FFF7A4FF2846FFF713FE1434C4
:102BEC001435E3E7F8BDF8B54568836804469D42A3
:102BFC000E4617460EDB0135002D05DDA9000068D9
:102C0C00FEF7A8FE20B9F8BD0068FEF79BFE002079
:102C1C002060A5602568626805EB860105EB8202E1
:102C2C00521A081D01F04FF845F826706368012010
:102C3C0001336360F8BD37B5044624300D4601906E
:102C4C00FFF72AFC2368616803EB810083421A4674
:102C5C0008D012680433AA42F8D101A8FFF72CFE61
:102C6C0000250EE02A462046FFF7BDFF054600284A
:102C7C00F3D06368012B01D1FFF702FD01A8FFF728
:102C8C001BFE284603B030BD8842F8B506460C46FC
:102C9C00154614D9904213D2A2F110056C1AA1F169
:102CAC0010070444AF4218D01CB12946204600F04E
:102CBC0055FD284600F062FD103D103CF2E70CD0AB
:102CCC00AC420AD01EB12146304600F047FD2046EA
:102CDC0000F054FD10341036F2E7F8BD70B50E1E3E
:102CEC0005460BDD3001FEF725FE044670B195E874
:102CFC00060001EB0212FFF7C7FF00E00024286872
:102D0C00FEF720FE2C60AE60012070BD70BD2DE979
:102D1C00F04F92460023462295B0036043608360D7
:102D2C00C3600361436102760291DAF80410054630
:102D3C009942089309930A9340F39D8008A8FFF7E2
:102D4C00CDFF002840F097808EE021460BA800F0C4
:102D5C0005FD0BA90FA8099E00F000FD09990A9B1F
:102D6C009942C0F2CE80013108A8FFF7B7FF0028C6
:102D7C0040F0C7800FA800F001FD0BA800F0FEFC8E
:102D8C001434A742E1D10026B1460B960C960D9651
:102D9C00099B9E4280F2A880089A3301D35806936F
:102DAC00002B00F09F8014237343CDF81C900193EB
:102DBC000BAC07A906A8FFF711FB0746002800F08B
:102DCC00918014AB014603F8399D079A2046FFF712
:102DDC007FFB9DF817800090B8F1000F53D1BDF820
:102DEC001C300F97ADF840304FF6FF73CDF8448090
:102DFC00ADF84230CDF84880CDF84C806768A368B8
:102E0C009F424FDA009B14225343D4F800B0616800
:102E1C000BEB030702FB01B207F1140039460393D5
:102E2C00FFF795FEA7B10F9A039B11A94BF803204E
:102E3C00BDF8403007F10800BB80BDF94230C7F83F
:102E4C000890FB80C7F80C90C7F81090FFF768FE4D
:102E5C0063680133636011A8FFF7D4FCB8F1000F6D
:102E6C0011D00BA8FFF7CEFC08A8FFF7DFFC284613
:102E7C0015B0BDE8F08FDAF80040DAF8043014270A
:102E8C0007FB03477DE72368009A142404FB0234F4
:102E9C00069B1B7823BBDAF80030019A13441B7C89
:102EAC00E3801DE00137002F0FDD142303FB07F037
:102EBC000393FEF73FFD834678B194E80600039B2D
:102ECC0003FB0212FFF743FE00E0C3462068FEF747
:102EDC0039FDC4F800B0A76094E74FF00108BAE7D9
:102EEC00083466E7013653E708A92846FFF718FEB1
:102EFC000BA905F10C00FFF713FE9DF808302B769B
:102F0C00AFE7089B099A03EB061603EB0212314656
:102F1C0006F11000FFF7B8FE1EB10FA9304600F005
:102F2C001DFC099B0133099324E700007FB504467F
:102F3C000E460546084B114644F8043B01A8FDF724
:102F4C0063F901AA31462046FFF7E1FE01A8FDF71F
:102F5C001AF9284604B070BD483F0A08F0B50F4670
:102F6C008BB02B49384616461D46109C00F00EFFC0
:102F7C0028BB002C49D0294601A8FFF7DEFD2549C6
:102F8C00242000F02FFD0546B8B101A904A8FFF7D5
:102F9C00D4FD04A907A8FDF737F907AA314628463E
:102FAC00FFF7C4FF07A8FDF7EEF81B4B2C622B6054
:102FBC0004A8FDF7E8F8194B2B6001A81FE018498D
:102FCC00384600F0E3FEF0B9FCB1294604A8FFF73F
:102FDC00B4FD1049242000F005FD054670B104A98C
:102FEC0007A8FDF711F907AA31462846FFF79EFFFF
:102FFC0007A8FDF7C8F8084B2C622B6004A8FDF756
:10300C00C2F8284602E0002000E020460BB0F0BDDC
:10301C00114C0A08104D0A08984C0A08A04B0A08D3
:10302C00154C0A08014A024B1A607047264C0A08D4
:10303C00BC0400202DE9F047089DD0F820900446F0
:10304C000E4617469846FFF721F8814505D15A4898
:10305C00FEF7B6FE002840F0AC802B791B0705D597
:10306C006B69564A0021206A00F0D2F9B8F1000FC2
:10307C000DD05B212046FFF720FA41462046FFF792
:10308C000EFA23680222DB684D49204698472B79BB
:10309C00D90725D5D5F808802F21404600F09DFE94
:1030AC0008B100F1010841462046FFF7F8F92B79E9
:1030BC009A0709D53A212046FFF7FFF9EB68414AF8
:1030CC000021206A00F0A4F92B79022213F0040FDE
:1030DC00236818BF3C49DB6808BF3C492046984729
:1030EC002B795B0718D529690A46134613F8010B8F
:1030FC0038B1202801D1194601E0282801D01A4600
:10310C00F3E72368521ADB682046984723680422A9
:10311C00DB682F492046984700213846FEF77EFB96
:10312C0001462046FFF7BBF923680222DB682749DA
:10313C00204698471EB131462046FFF7B0F92B794F
:10314C0013F0300F2DD023682046DB680222214972
:10315C0098472B79D8060BD523680722DB681E49C4
:10316C0020469847AB691D4A0021206A00F050F9AF
:10317C002B79990611D5DA0605D523680222DB686E
:10318C00114920469847236815492046DB680A22D6
:10319C009847E9692046FFF782F95D212046FFF741
:1031AC008CF923682046BDE8F047DB6802220D4904
:1031BC001847BDE8F08700BF200100202A4C0A0800
:1031CC00314C0A08634A0A08344C0A08394C0A087C
:1031DC00374C0A083C4C0A083F4C0A08474C0A0872
:1031EC004A4C0A08554C0A082DE9F04385B0D0F832
:1031FC00208006460F4691461D460C9CFEF746FF66
:10320C00804505D14A48FEF7DBFD002840F08C8054
:10321C00336A484A4FF0000801A8019203938DF8D5
:10322C000880FEF786FC41464846FEF7F7FA8046D2
:10323C004149012201A8FEF701FD4146FFF71FF9A4
:10324C003FB13E49012201A8FEF7F8FC3946FFF7D1
:10325C0016F93DB13A49012201A8FEF7EFFC2946C7
:10326C00FFF70DF92379DF070ED5A5682F21284626
:10327C0000F0B3FD00B1451C3249012201A8FEF754
:10328C00DDFC2946FFF7FBF823799D0707D52E496E
:10329C00022201A8FEF7D2FCE168FEF757FC237965
:1032AC00580716D525692F463B4613F8012B3AB122
:1032BC00202A01D11D4601E0282A01D01F46F3E740
:1032CC000222224901A8FEF7B9FC7A1B2946FEF717
:1032DC00C4FC2379190707D51D49012201A8FEF763
:1032EC00ADFC6169FEF744FC2379DA0608D50422AB
:1032FC0018490DEB0200FEF7A1FCA169FEF726FCB4
:10330C0023799B0607D51449062201A8FEF796FCE3
:10331C00E169FFF7B4F801A8FEF7F5FB306A022269
:10332C0003680E49DB68984705B0BDE8F08300BF21
:10333C0020010020884B0A08BA4B0A08D04B0A0817
:10334C00894C0A086D4A0A08584C0A085B4C0A0852
:10335C00E54B0A085E4C0A08634C0A08554C0A08EF
:10336C00F8B506460D468F180024BD420CD03368C4
:10337C0015F8011B9B6830469847002801DB044474
:10338C00F3E7002C08BF04462046F8BD70B505468F
:10339C000C46084649B100F003FD2B680246214655
:1033AC002846BDE87040DB68184770BD08B5FFF7CC
:1033BC00EDFF08BD03689B68184738B50D2105461D
:1033CC00FFF7F8FF0A2104462846FFF7F3FF2044D5
:1033DC0038BD012A98BF0A2230B50B468BB00021AC
:1033EC008DF824100DF12304B3FBF2F505FB123319
:1033FC00DBB2092B94BF30333733DBB2214604F8F0
:10340C0001392B46002DEFD1FFF7C0FF0BB030BDBB
:10341C000CB42DE9F04387B000AF07F1380454F831
:10342C00049B05460E4623464A461421381D3C6033
:10343C00FEF798FA132805D8391D2846FFF7A6FF82
:10344C00044613E000F1080323F00703E846ADEB54
:10345C00030D411C23464A4668463C60FEF782FA3F
:10346C0069462846FFF792FF0446C5461EB128461A
:10347C00FFF7A3FF044420461C37BD46BDE8F043CC
:10348C0002B0704770474174704708B5007CFEF776
:10349C001DF920EAE07008BD08B5007CFEF7EEF8D7
:1034AC0020EAE07008BD08B5007CFEF7F7F830EABA
:1034BC00200028BF4FF0FF3008BD08B5007CFEF798
:1034CC00E5F830EA200028BF4FF0FF3008BD007C43
:1034DC00FEF7ECB810B50446142100F07FFA204634
:1034EC0010BD70B5457C04460E4625B9007CFEF730
:1034FC00EDF8002805DD3146207CBDE87040FEF774
:10350C00B5B8284670BD000010B5044608461146F3
:10351C00002262604FF47A72A260054A2074226025
:10352C00012262741A46FEF791F8204610BD00BFC6
:10353C00E04C0A080023007CFEF7D0B80022FFF70D
:10354C00F9BF007CFEF78AB8007CFEF7B7B8000024
:10355C0038B50C4D296811F0010411D12846FCF73F
:10356C00A3FD68B1084A2146084B0948FFF7CCFF78
:10357C002846FCF79EFD074A0749054800F020FA4B
:10358C00034838BD580500205C050020D4040020F9
:10359C00C00400207400002091340A0810B50446C1
:1035AC00006818B1FEF7CEF90023236010BD10B5EA
:1035BC000446FFF7F3FF204610BD00004FF6FF73E3
:1035CC0010B5084C00202060A080A0712081638180
:1035DC00FEF78CF92046BDE81040034A034900F081
:1035EC00EFB900BFE005002074000020BB350A08CD
:1035FC000068FEF793B870B504460E46002540F8F7
:10360C00085FFEF773F830462670FEF7B7F8656072
:10361C00204670BD38B5054600F108042046FEF77B
:10362C003BFF28784FF6FF71FEF798F82046FFF71E
:10363C00DFFF38BD08B50830FFF7DAFF08BD000022
:10364C00400830B5186000241868E5B2884206D9E5
:10365C000134082C02D040081860F5E70725024B0E
:10366C005B5D137030BD00BF084D0A082DE9F043B7
:10367C0080468FB008300E46FEF70EFF98F80040DB
:10368C001422002109A800F039FB0B23204600224C
:10369C0009A9ADF82430FEF781F89DF82D404CB106
:1036AC009DF82C502DB90C9F9DF834909DF8354009
:1036BC0003E00024A1462746012533790DB1002BE8
:1036CC003FD19D420BD1B268BA4208D18DF82090FF
:1036DC008DF82140BDF82010B289914231D03BB118
:1036EC00002398F80000019300931A46012116E07C
:1036FC008DF80F30B16804AB0DF10F020A98FFF78B
:10370C009FFF317905B1C9B9A9420BD000240194AE
:10371C00747B337B9DF80F2098F800000094FEF723
:10372C0045F80EE0B368BB42F0D38DF820908DF8CD
:10373C002140BDF82020B3899A42E7D1049BBB42BB
:10374C00E4D100200FB0BDE8F08308B50078FEF797
:10375C000DF8C0B208BD0078FEF718B8002303605E
:10376C0043608360037310B50C6804604C6844605C
:10377C008C6884600B604B608B6010BD10B5044688
:10378C000068FEF7DFF8204610BD10B5044600684F
:10379C0008B1FEF7D7F800232360A360636010BD67
:1037AC0038B504460D4600680131FEF7D3F810B168
:1037BC0084E82100012038BD10B50368044613B11C
:1037CC0043688B4207D22046FFF7EAFF20B1A3687B
:1037DC000BB922681370012010BD70B50E4611464E
:1037EC0004461546FFF7E8FF18B92046FFF7CDFF52
:1037FC0009E02A463146A560206800F059FA226893
:10380C00A3680021D154204670BD884210B50B46E8
:10381C00044607D0096819B19A68FFF7DEFF01E08A
:10382C00FFF7B3FF204610BD10B50446002303601C
:10383C00436083600373FFF7E8FF204610BD000070
:10384C0070B5044614252A46094E002100F056FA9C
:10385C00258020253146A5602561284600F0C0F85A
:10386C0031466060284600F0BBF8E060204670BD31
:10387C00104D0A0830B50E4D87B0296811F00104BF
:10388C0013D12846FCF710FC78B101A8FFF7D8FF3C
:10389C0001AA21460748FEF757FB2846FCF709FC0E
:1038AC00054A0649034800F08BF8024807B030BDC2
:1038BC00EC050020F005002074000020FD1E0A0815
:1038CC0013B5084C00231A46194600932046FEF700
:1038DC0097FC2046044A054902B0BDE8104000F0B0
:1038EC006FB800BF04060020740000205D210A0898
:1038FC0070B51A4E0446316811F001050FD13046EF
:10390C00FCF7D2FB58B129461548FFF774FE304638
:10391C00FCF7CFFB134A1449114800F051F810483A
:10392C00FFF719FF28B1A4F10D03022B01D80020D9
:10393C0070BDFFF79FFFFEF731FB08B1012CF6D9E4
:10394C00FFF706FEFFF700FE18B1A4F11203012BDE
:10395C00EDD9172C8CBF0020012070BD1001002068
:10396C001401002074000020A5030A08172838B59C
:10397C0004460D460AD8FF2908D0FFF7B9FF28B135
:10398C0029462046BDE83840FDF720BF38BD38B584
:10399C0004460D46FDF722FFFF2810D0062804D858
:1039AC004D2323FA00F0C30709D42046FFF7A0FFEC
:1039BC0028B129462046BDE83840FDF717BF38BD71
:1039CC000B460146184600F065B90000024B18681A
:1039DC00BFF35F8F704700BF20060020FCF757BB7A
:1039EC0000F000B810B5002814BF0446012420468E
:1039FC00FDF7A0FF20B9FFF7E9FF08B18047F6E714
:103A0C0010BD0000184B1A68D1075CBF01221A6068
:103A1C00164B1A68D2075CBF01221A60144B1A6845
:103A2C00D0075CBF01221A60124B1A68D1075CBF29
:103A3C0001221A60104B1A68D2075CBF01221A606F
:103A4C000E4B1A68D0075CBF01221A600C4B1A6827
:103A5C00D1075CBF01221A600A4B1A68D2075CBFFF
:103A6C0001221A60704700BF400600203C0600206F
:103A7C003806002034060020300600202C060020DA
:103A8C002806002024060020244B1A68D0075CBFAF
:103A9C0001221A60224B1A68D1075CBF01221A60FE
:103AAC00204B1A68D2075CBF01221A601E4B1A68A1
:103ABC00D0075CBF01221A601C4B1A68D1075CBF8F
:103ACC0001221A601A4B1A68D2075CBF01221A60D5
:103ADC00184B1A68D0075CBF01221A60164B1A6883
:103AEC00D1075CBF01221A60144B1A68D2075CBF65
:103AFC0001221A60124B1A68D0075CBF01221A60AF
:103B0C00104B1A68D1075CBF01221A600E4B1A6861
:103B1C00D2075CBF01221A60704700BF70060020FC
:103B2C006C06002068060020640600206006002059
:103B3C005C06002058060020540600205006002089
:103B4C004C0600204806002044060020244B1A682E
:103B5C00D0075CBF01221A60224B1A68D1075CBFE8
:103B6C0001221A60204B1A68D2075CBF01221A602E
:103B7C001E4B1A68D0075CBF01221A601C4B1A68D6
:103B8C00D1075CBF01221A601A4B1A68D2075CBFBE
:103B9C0001221A60184B1A68D0075CBF01221A6008
:103BAC00164B1A68D1075CBF01221A60144B1A68B5
:103BBC00D2075CBF01221A60124B1A68D0075CBF97
:103BCC0001221A60104B1A68D1075CBF01221A60DF
:103BDC000E4B1A68D2075CBF01221A60704700BFF7
:103BEC00A00600209C0600209806002094060020C9
:103BFC00900600208C0600208806002084060020F9
:103C0C00800600207C060020780600207406002028
:103C1C00184B1A68D1075CBF01221A60164B1A6840
:103C2C00D2075CBF01221A60144B1A68D0075CBF24
:103C3C0001221A60124B1A68D1075CBF01221A606C
:103C4C00104B1A68D2075CBF01221A600E4B1A681F
:103C5C00D0075CBF01221A600C4B1A68D1075CBFFD
:103C6C0001221A600A4B1A68D2075CBF01221A6043
:103C7C00704700BFC0060020BC060020B80600201C
:103C8C00B4060020B0060020AC060020A8060020D8
:103C9C00A406002010B5054C13462CB10A4601466B
:103CAC000220AFF3008010BD204610BD00000000C4
:103CBC0010B5431E0A44914204D011F8014B03F88D
:103CCC00014FF8E710BD884210B501EB020301D893
:103CDC00421E0BE09842FBD28118D21AD34204D078
:103CEC0013F8014D01F8014DF8E710BD994204D0CD
:103CFC0011F8014B02F8014FF8E710BD03460244DE
:103D0C00934202D003F8011BFAE7704738B5124B07
:103D1C0005461C68A36BD3B91820FDF70BFE43F2C4
:103D2C000E33A06303804AF6CD33438041F2342333
:103D3C0083804EF26D63C3804DF6EC6303810523E3
:103D4C0043810B23838101220023C0E90423A36B4D
:103D5C0000221D615A6138BD70000020C9B20346B3
:103D6C0010F8012B1AB19142F9D11846704700296D
:103D7C000CBF18460020704710B50446FFF7EEFF45
:103D8C0018B9204600F00CF8204410BD10F8012B97
:103D9C0011F8013B012A28BF9A42F7D0D01A70477C
:103DAC00034613F8012B002AFBD1181A013870476F
:103DBC0030B582B1451E013915F8013F11F8014F9C
:103DCC00A34206D1EC431444E04201D0002BF3D1C2
:103DDC001C46181B30BD104630BD38B503460D4689
:103DEC0041B1002429461846FFF7B8FF30B1431CF7
:103DFC000446F7E7BDE83840FFF7B0BF204638BDB2
:103E0C002DE9F0470F4680463F48D0F800903D46DC
:103E1C0015F8014B09EB0400407800F0080000F0A5
:103E2C00FF0608B12F46F2E72D2C03D1BD1C7C7880
:103E3C00012603E02B2C04BF7C78BD1C13B1102B86
:103E4C000AD15BE0302C57D1287800F0DF005828DD
:103E5C004DD16C7810230235002E14BF4FF0004C5E
:103E6C006FF0004CBCFBF3FA0027384603FB1ACC6E
:103E7C0009EB040E9EF801E01EF0040F01D0303C5B
:103E8C000BE01EF0030E1BD0BEF1010F0CBF4FF068
:103E9C00370E4FF0570ECEEB0404A34210DDB7F1F2
:103EAC00FF3F0AD0504506D801D1644503DC03FB23
:103EBC000040012701E04FF0FF3715F8014BD7E721
:103ECC007B1C0CD1002E4FF0220314BF4FF000408E
:103EDC006FF00040C8F800302AB9BDE8F08706B191
:103EEC00404272B107B1691E1160BDE8F087302401
:103EFC00002BB1D10823AFE70A23ADE7302CA3D0B8
:103F0C00AAE7BDE8F08700BF0C00002013460A4664
:103F1C00014602480068FFF773BF00BF7000002025
:103F2C001D000A085D000A0889000A088D000A08AD
:103F3C000000000000000000000000000000000075
:103F4C0000000000A1000A08C5000A0800000000DB
:103F5C0000000000D1000A0805010A0841300A08D7
:103F6C00C7000A085353443133303620616C6C6FF0
:103F7C00636174696F6E206661696C656400000032
:103F8C0000000000000000004D030A0800010307B8
:103F9C000F1F3F7F64656661756C7420004D534242
:103FAC00004C5342003C53504953657474696E671E
:103FBC00732064656661756C743E003C53504953C4
:103FCC00657474696E6773202573256C7520257371
:103FDC00204D4F444525643E00AED580A8D300400B
:103FEC008D2000A1C8DB40A4A62EAF0080C0E0F05D
:103FFC00F8FCFE2200FF2100000000000000000081
:10400C00B5030A08CD030A0809140A086D330A0817
:10401C00E1030A08610E0A08190E0A08490E0A087B
:10402C00250E0A08370E0A08590D0A08610E0A08EF
:10403C003F100A0885050A08CB0B0A087D0B0A08F5
:10404C00DB0E0A08210F0A083D0F0A08BD0F0A08EB
:10405C0000000000000180000000000000000000D3
:10406C00038000000000000000000007C0000000FA
:10407C0000000000000007C000000000000000006D
:10408C00000FC00000000000000000001FE0000056
:10409C00000000000000001FE00000000000000015
:1040AC0000003FE00000000000000000003FF000B6
:1040BC0000000000000000007FF000000000000085
:1040CC00001FF87FF0000000000000003FFE7FF0B2
:1040DC00000000000000003FFF7FF0000000000027
:1040EC0000001FFFFBE0000000000000000FFFF9C4
:1040FC00FFC00000000000000FFFF9FFF8000000F7
:10410C0000000007FFF1FFFF00000000000003FCAF
:10411C0073FFFF80000000000001FE3FFFFF8000E6
:10412C000000000000FF1E0FFF0000000000000058
:10413C007FFE1FFC000000000000003FFFFFF800A6
:10414C000000000000000FDFFFE000000000000096
:10415C00001F19FFC0000000000000003F3CFF00E2
:10416C00000000000000007E7CF800000000000051
:10417C0000007FFE7C0000000000000000FFFFFC40
:10418C000000000000000000FFFFFE000000000027
:10419C00000000FFFFFE0000000000000001FFEF28
:1041AC00FE0000000000000001FFCFFE0000000038
:1041BC0000000003FF07FE0000000000000003FCED
:1041CC0007FE0000000000000003F003FE000000EA
:1041DC0000000000018000FE000000000000000054
:1041EC0000007E000000000000000000003E000007
:1041FC0000000000000000000C00000000000007A0
:10420C008000FC000003C0000000078001FC0000DF
:10421C0003C0000000078001FC000003C000000088
:10422C00078001E00000001E000000078001E00094
:10423C0000001E007FE3F79FF9FDE7787BDFC0FFEE
:10424C00F7FFBFFDFDFF787BDFC0FFF7FFBFFDFD74
:10425C00FF787BDFC0F0F787BC3DE1FF787BDE00A9
:10426C00F0F787BC3DE1F0787BDE0000F787803DFE
:10427C00E1E0787BDE007FF7879FFDE1E0787BDE75
:10428C0000FFF787BFFDE1E0787BDE00F0F787BC2D
:10429C003DE1E0787BDE00F0F787BC3DE1E0787B28
:1042AC00DE00F0F787BC3DE1E0787BDE00FFF7FF36
:1042BC00BFFDE1E07FFBDFC0FFF7FFBFFDE1E07F6B
:1042CC00FBDFC07CF3F39F3DE1E03E7BCFC0000001
:1042DC00000000000000000000FFFFFFFFFFFFFFD9
:1042EC00FFFFFFC0FFFFFFFFFD68DB111A31C0FFAE
:1042FC00FFFFFFFD2B5AFB6AEFC0FFFFFFFFFD4BDB
:10430C005B3B1A33C0FFFFFFFFFD6B5BDB6AFDC03D
:10431C000000600000000000000000000000000031
:10432C0000E00000000000000000000000000001A0
:10433C00E00000000000000000000000000001F0A0
:10434C000000000000000000000000000003F0006E
:10435C0000000000000000000000000007F000005A
:10436C00000000000000000000000007F800000042
:10437C00000000000000000000000FF80000000327
:10438C00C0007E000001E0007F0FF800000003C0B9
:10439C0000FE000001E000FFEFF800000003C00089
:1043AC00FE000001E000FFFFF800000003C000F079
:1043BC000000000F007FFE7FC0000003C000F00073
:1043CC0000000F003FFE7FF83FF1FBCFFCFEF3BC7B
:1043DC003DEFE01FFE7FFF7FFBFFDFFEFEFFBC3DDE
:1043EC00EFE01FC6FFFF7FFBFFDFFEFEFFBC3DEFD4
:1043FC00E00FE3C7FE787BC3DE1EF0FFBC3DEF0091
:10440C0007FF87FC787BC3DE1EF0F83C3DEF000114
:10441C00FFFFF0007BC3C01EF0F03C3DEF0001F34A
:10442C007FE03FFBC3CFFEF0F03C3DEF0003E33FEA
:10443C00807FFBC3DFFEF0F03C3DEF0007E73C0064
:10444C00787BC3DE1EF0F03C3DEF0007FFBE00782A
:10445C007BC3DE1EF0F03C3DEF0007FFFE00787BD7
:10446C00C3DE1EF0F03C3DEF000FFFFE007FFBFFB4
:10447C00DFFEF0F03FFDEFE00FFFFF007FFBFFDF03
:10448C00FEF0F03FFDEFE00FF9FF003E79F9CF9E13
:10449C00F0F01F3DE7E01FF1FF00000000000000FE
:1044AC0000000000001F80FF007FFFFFFFFFFFFFE9
:1044BC00FFFFFFE01C007F007FFFFFFFFEB46D8855
:1044CC008D18E000001F007FFFFFFFFE95AD7DB54E
:1044DC0077E000000F007FFFFFFFFEA5AD9D8D195B
:1044EC00E0000006007FFFFFFFFEB5ADEDB57EE0FE
:1044FC0000000000000000000000000000000000B0
:10450C0009140A086D330A08A1000A08610E0A088A
:10451C00190E0A08490E0A08250E0A08370E0A0851
:10452C00590D0A08610E0A083F100A083D100A08C6
:10453C00630E0A08A10E0A08DB0E0A08210F0A08EE
:10454C003D0F0A08BD0F0A0800000000003E5B4F3B
:10455C005B3E3E6B4F6B3E1C3E7C3E1C183C7E3CD7
:10456C00181C577D571C1C5E7F5E1C00183C1800E5
:10457C00FFE7C3E7FF0018241800FFE7DBE7FF3075
:10458C00483A060E2629792926407F050507407FE3
:10459C0005253F5A3CE73C5A7F3E1C1C08081C1C56
:1045AC003E7F14227F22145F5F005F5F06097F014C
:1045BC007F006689956A606060606094A2FFA29437
:1045CC0008047E040810207E201008082A1C080805
:1045DC001C2A08081E101010100C1E0C1E0C303853
:1045EC003E3830060E3E0E06000000000000005F54
:1045FC0000000007000700147F147F14242A7F2A70
:10460C001223130864623649562050000807030031
:10461C00001C2241000041221C002A1C7F1C2A087D
:10462C00083E0808008070300008080808080000E0
:10463C0060600020100804023E5149453E00427F54
:10464C00400072494949462141494D331814127FA3
:10465C001027454545393C4A494931412111090743
:10466C003649494936464949291E000014000000C4
:10467C004034000000081422411414141414004196
:10468C0022140802015909063E415D594E7C121153
:10469C00127C7F494949363E414141227F4141418B
:1046AC003E7F494949417F090909013E4141517306
:1046BC007F0808087F00417F41002040413F017F77
:1046CC00081422417F404040407F021C027F7F043F
:1046DC0008107F3E4141413E7F090909063E415188
:1046EC00215E7F09192946264949493203017F0178
:1046FC00033F4040403F1F2040201F3F4038403F79
:10470C00631408146303047804036159494D43008E
:10471C007F4141410204081020004141417F0402C5
:10472C00010204404040404000030708002054545C
:10473C0078407F284444383844444428384444283A
:10474C007F385454541800087E090218A4A49C788D
:10475C007F0804047800447D40002040403D007FE9
:10476C001028440000417F40007C047804787C08C9
:10477C000404783844444438FC182424181824249D
:10478C0018FC7C08040408485454542404043F4482
:10479C00243C4040207C1C2040201C3C4030403CB1
:1047AC0044281028444C9090907C4464544C440011
:1047BC000836410000007700000041360800020175
:1047CC000204023C2623263C1EA1A161123A404061
:1047DC00207A3854545559215555794122545478DE
:1047EC0042215554784020545579400C1E52721277
:1047FC003955555559395454545939555454580000
:10480C0000457C410002457D420001457C407D1203
:10481C0011127DF0282528F07C5455450020545465
:10482C007C547C0A097F4932494949323A44444410
:10483C003A324A4848303A4141217A3A424020784B
:10484C00009DA0A07D3D4242423D3D4040403D3C4C
:10485C0024FF2424487E4943662B2FFC2F2BFF0971
:10486C0029F620C0887E0903205454794100004465
:10487C007D413048484A32384040227A007A0A0A50
:10488C00727D0D19317D2629292F282629292926C3
:10489C0030484D4020380808080808080808382F08
:1048AC0010C8ACBA2F102834FA00007B0000081492
:1048BC002A142222142A14085500550055AA55AA68
:1048CC0055AAFF55FF55FF000000FF00101010FF08
:1048DC0000141414FF001010FF00FF1010F010F063
:1048EC00141414FC001414F700FF0000FF00FF1454
:1048FC0014F404FC141417101F10101F101F1414A0
:10490C00141F00101010F0000000001F10101010E9
:10491C001F10101010F010000000FF1010101010DD
:10492C0010101010FF10000000FF140000FF00FF1B
:10493C0000001F10170000FC04F4141417101714B7
:10494C0014F404F40000FF00F714141414141414D9
:10495C00F700F7141414171410101F101F1414144C
:10496C00F4141010F010F000001F101F0000001FB6
:10497C0014000000FC140000F010F01010FF10FFE9
:10498C00141414FF141010101F00000000F010FF7E
:10499C00FFFFFFFFF0F0F0F0F0FFFFFF0000000062
:1049AC0000FFFF0F0F0F0F0F3844443844FC4A4AE6
:1049BC004A347E02020606027E027E02635549419B
:1049CC00633844443C04407E201E2006027E0202D2
:1049DC0099A5E7A5991C2A492A1C4C7201724C30E6
:1049EC004A4D4D303048784830BC625A463D3E49BD
:1049FC004949007E0101017E2A2A2A2A2A44445F61
:104A0C00444440514A444040444A51400000FF0154
:104A1C0003E080FF000008086B6B08361236243662
:104A2C00060F090F060000181800000010100030C7
:104A3C0040FF0101001F01011E00191D1712003C4F
:104A4C003C3C3C0000000000302E300066616C7372
:104A5C0065007472756500256400257500252E2A85
:104A6C006C66002567006E756C6C007525303478AB
:104A7C000000000000000000000000006F1D0A088C
:104A8C00791D0A08831D0A088D1D0A08971D0A083E
:104A9C00A31D0A08AF1D0A08BB1D0A08C31D0A087E
:104AAC00CD1D0A08D91D0A080000000000000000F6
:104ABC00DF1E0A08D51E0A08CB1E0A083D1E0A086E
:104ACC00BF1E0A08B31E0A08A71E0A089F1E0A0862
:104ADC00951E0A088B1E0A08471E0A0800000000D3
:104AEC0000000000FD1E0A08471F0A081F1F0A08C5
:104AFC00FF1E0A08271F0A082F1F0A08371F0A085B
:104B0C003F1F0A080000000000000000B51F0A0843
:104B1C0005200A0813200A086D330A08F11F0A0839
:104B2C00B71F0A08CD1F0A08FF1F0A08E31F0A084F
:104B3C00B11F0A0800000000000000006D210A08E7
:104B4C005D210A085F210A085A00252B3033643A8C
:104B5C00253032750025592D256D2D256454254899
:104B6C003A254D3A2553257A0061736374696D6556
:104B7C00000000000000000000000000E7230A080D
:104B8C000D240A08C1230A08AF190A080000000006
:104B9C00000000009D280A08B1280A08F5310A080F
:104BAC00C9230A08626175640053657269616C00FF
:104BBC0055534253657269616C31007479706500AC
:104BCC00706172616D00636D6400696400686E648D
:104BDC00007374726D0066696C74006C766C0061A5
:104BEC00646448616E646C65720072656D6F7665A5
:104BFC0048616E646C657200656E756D48616E64BB
:104C0C006C657273004A534F4E53747265616D4CF0
:104C1C006F6748616E646C6572006170700025305E
:104C2C0031307520005D20002C200028293A20000E
:104C3C00205B00636F6465203D200025690064657E
:104C4C007461696C73203D20000D0A006C6E006667
:104C5C006E00636F64650064657461696C006E6FEF
:104C6C006E6500747261636500696E666F007761D2
:104C7C00726E006572726F720070616E69630061B2
:104C8C006C6C0000000000000000000071280A0895
:104C9C0089280A0841300A08C7000A0800000000E9
:104CAC0000000000E5230A081B240A08692F0A08E3
:104CBC00CB230A080000000000000000E3230A08D0
:104CCC0029240A0895270A0837240A08000000003E
:104CDC000000000091340A08E1340A08EF340A0895
:104CEC006D330A08A5340A08C7340A08B3340A0815
:104CFC00DB340A0893340A0897340A0800081018A1
:104D0C00202830380000202020202020202020289F
:104D1C002828282820202020202020202020202067
:104D2C00202020202020881010101010101010109F
:104D3C0010101010101004040404040404040404DF
:104D4C00101010101010104141414141410101015E
:104D5C000101010101010101010101010101010137
:104D6C000110101010101042424242424202020244
:104D7C000202020202020202020202020202020207
:104D8C0002101010102000000000000000000000B5
:104D9C000000000000000000000000000000000007
:104DAC0000000000000000000000000000000000F7
:104DBC0000000000000000000000000000000000E7
:104DCC0000000000000000000000000000000000D7
:104DDC0000000000000000000000000000000000C7
:104DEC0000000000000000000000000000000000B7
:104DFC0000000000000000000000000000000000A7
:104E0C000000000000000000000000000000000096
:104E1C000000000000000000000000000000000086
:104E2C000000000000000000000000000000000076
:104E3C000000000000000000000000000000000066
:104E4C000000000000000000000000000000000056
:104E5C000000000000000000000000000000000046
:104E6C000000000000000000430000007D020A0862
:104E7C00490D0A084D0D0A08510D0A08550D0A086E
:104E8C0007150A080B150A080F150A08291E0A0827
:104E9C00E91E0A0891230A08AD230A0831300A08D2
:104EAC00C9350A08CD380A08113A0A08953A0A0891
:104EBC00593B0A081D3C0A080000000000000000D5
:044ECC0000000000E2
:044ED00000000000DE
:104ED400754B0A08C84C0A08B04C0A08114D0A0858
:104EE40000000000144E0A08344E0A08544E0A0802
:104EF40000000000000000000000000000000000AE
:104F0400744E0A08000000000000000000000000C9
:104F1400000000000000000000000000000000008D
:104F2400000000000000000000000000000000007D
:104F3400000000000000000000000000000000006D
:044F44001000002039
:104F4800FFFFFFFF00000102030405060708090A26
:104F58000B0C0D0E0F101112131415161718191A21
:084F68001B1C1D1E1F20280068
:044F70007856341229
:04000005080A001CC9
:00000001FF
